:040000000202753251
:03000B0002027C72
:0300110002000EDC
:03000E000201EC00
:20001400E53D60FC20E7F9153DE53C60FC20E7F9153CC2AF7430B53E028003020095E535F0
:20003400242BF9873E438920758DFA759850D28E752A0074FB252A50030200FAE52A7005CA
:2000540075993180307401B52A0575995080267402B52A09E535242BF9879980187403B59C
:200074002A0BAF3974075F2430F59980087404B52A0375990A10990280FBE52A04F52A80C1
:20009400B27430B53F60E535242BF9873F438920758DFA759850D28E752A0074FB252A4038
:2000B40045E52A700575993280307401B52A0575995080267402B52A09E535242BF9879936
:2000D40080187403B52A0BAF3974075F2430F59980087404B52A0375990A10990280FBE56A
:2000F4002A04F52A80B5D2AF053CE5352420F9AF3974022FF7E5352420F9E7B539F7C2AF39
:20011400E535242BF9E7FFB53E5F753E30438920758DFA759850D28E752A0074FB252A50FC
:20013400030201E3E52A700575993180307401B52A0575994F80267402B52A09E535242B2C
:20015400F9879980187403B52A0BAF3974075F2430F59980087404B52A0375990A10990230
:2001740080FBE52A04F52A80B2E535242BF9E7FFB53F5C753F30438920758DFA759850D2F9
:200194008E752A0074FB252A4045E52A700575993280307401B52A0575994F80267402B5E0
:2001B4002A09E535242BF9879980187403B52A0BAF3974075F2430F59980087404B52A03F7
:2001D40075990A10990280FBE52A04F52A80B5D2AF053D053A02042F753C01753D02753A1A
:2001F40000D2AF753E30753F30753B3190001412035485822FE52F242BF8A63BE53B04F52A
:200214003B90001412035485822FE52F242BF8A63BE53B04F53B90001412035485822FE594
:200234002F242BF8A63BE53BFF04F53BD2AFE53A60FC20E7F9153AC2AF90001412035485B2
:20025400822FE52F242BF8A63B7435B53B067E317F008009AD3B0DEDFE3395E0FF8E3B8077
:0C027400CB020284222222220202AA32C3
:200280008539822275340075890075A882D28C9001EC120354858235E5352430F98781D0F7
:2002A000D0D083D082D0F0D0E022C2AFC0E0C0F0C082C083C0D0E5352430F8A681E8C0E04C
:2002C000E9C0E0EAC0E0EBC0E0ECC0E0EDC0E0EEC0E0EFC0E0E524FF04F5247408B52409C7
:2002E000752400E539FF04F53974FD2535400BAF350FEFFE3395E0FF80047E007F008E3535
:20030000E5357005E53420E01E7401B53505E53420E1147402B53505E53420E20A7403B5CF
:2003200035C7E53430E3C2D0E0FFD0E0FED0E0FDD0E0FCD0E0FBD0E0FAD0E0F9D0E0F8E592
:20034000352430F98781D0D0D083D082D0F0D0E0D2AF3222C2AF740FB534047582FF22E5AB
:200360003420E0084334017537008025E53420E1084334027537018018E53420E2084334FE
:2003800004753702800BE53420E306433408753703858136E537C454F0FF243FF581C08256
:2003A000C0835400C0E0C0E0C0E0C0E0E537FFC40354F8F5D0C0D0E5372430F8A681853659
:2003C00081D2AF85378222D20010AF02C200C0E0C0F0C082C083C0D0E5352430F8A6817400
:2003E000FD2535400BAF350FEFFE3395E0FF80047E007F008E35AF358FF005F07F017E003A
:200400008006EF2FFFEE33FED5F0F7AC347D00EC5207ED5206EF4E60C6E5352430F98781A5
:20042000D0D0D083D082D0F0D0E0A20092AF22C2AFE5357008E534FF14F53480287401B5D8
:200440003509E534FF24FEF534801A7402B53509E534FF24FCF534800C7403B53507E5348A
:20046000FF24F8F534E53430E0057535008020E53430E1057535018016E53430E205753576
:2004800002800CE53430E305753503800280FEE5352430F98781D0D0D083D082D0F0D0E0CC
:0304A000D2AF22B6
:00000001FF
