:0400000002024D3279
:03000B000202549A
:0300110002000EDC
:03000E000201BF2D
:20001400E53E60FC20E7F9153EE53D60FC20E7F9153DC2AF7430B53B59E535242BF9873BA8
:20003400438920758DFA759850D28E752A0074FC252A50030200E1E52A7009E535242BF989
:20005400879980227401B52A0575996980187402B52A0BAF3974075F2430F599800874035F
:20007400B52A0375990A10990280FBE52A04F52A80BC7430B53F56E535242BF9873F4389FC
:2000940020758DFA759850D28E752A0074FC252A403BE52A7009E535242BF987998022747A
:2000B40001B52A0575996980187402B52A0BAF3974075F2430F59980087403B52A03759945
:2000D4000A10990280FBE52A04F52A80BFD2AF053DE5352420F9AF3974022FF7E53524206F
:2000F400F9E7B539F7C2AFE535242BF9E7FFB53B55753B30438920758DFA759850D28E752F
:200114002A0074FC252A50030201B6E52A7009E535242BF9879980227401B52A0575996F54
:2001340080187402B52A0BAF3974075F2430F59980087403B52A0375990A10990280FBE50B
:200154002A04F52A80BCE535242BF9E7FFB53F52753F30438920758DFA759850D28E752A4C
:200174000074FC252A403BE52A7009E535242BF9879980227401B52A0575996F80187402A1
:20019400B52A0BAF3974075F2430F59980087403B52A0375990A10990280FBE52A04F52A6C
:2001B40080BFD2AF053E053A02040D753D01753E02753A00D2AF753B30753F30753C319008
:2001D400001412033285822FE52F242BF8A63CE53C04F53C90001412033285822FE52F248E
:2001F4002BF8A63CE53C04F53C90001412033285822FE52F242BF8A63CE53CFF04F53C7469
:20021400E125394031E53A60FC20E7F9153A90001412033285822FE52F242BF8A63C743549
:20023400B53C067E317F008009AD3C0DEDFE3395E0FF8E3C80C902040D02025C2222222266
:0402540002028232EE
:200258008539822275340075890075A882D28C9001BF120332858235E5352430F98781D06E
:20027800D0D083D082D0F0D0E022C2AFC0E0C0F0C082C083C0D0E5352430F8A681E8C0E074
:20029800E9C0E0EAC0E0EBC0E0ECC0E0EDC0E0EEC0E0EFC0E0E524FF04F5247408B52409EF
:2002B800E539FF04F53975240074FD2535400BAF350FEFFE3395E0FF80047E007F008E355D
:2002D800E5357007E53430E0E080227401B53507E53430E1D480167402B53507E53430E23E
:2002F800C8800A7403B535C1E53430E3BCD0E0FFD0E0FED0E0FDD0E0FCD0E0FBD0E0FAD0AF
:20031800E0F9D0E0F8E5352430F98781D0D0D083D082D0F0D0E0D2AF3222C2AF740FB5346E
:20033800047582FF22E53420E0084334017537008025E53420E1084334027537018018E5DA
:200358003420E208433404753702800BE53420E306433408753703858136E537C454F0FFE4
:20037800243FF581C082C0835400C0E0C0E0C0E0C0E0E537FFC40354F8F5D0C0D0E5372470
:2003980030F8A681853681D2AF85378222D20010AF02C200C0E0C0F0C082C083C0D0E53505
:2003B8002430F8A68174FD2535400BAF350FEFFE3395E0FF80047E007F008E35AF358FF06E
:2003D80005F07F017E008006EF2FFFEE33FED5F0F7AC347D00EC5207ED5206EF4E60C6E565
:2003F800352430F98781D0D0D083D082D0F0D0E0A20092AF22C2AFE5357008E534FF14F57D
:200418003480287401B53509E534FF24FEF534801A7402B53509E534FF24FCF534800C74B9
:2004380003B53507E534FF24F8F534E53430E0057535008020E53430E1057535018016E586
:200458003430E205753502800CE53430E305753503800280FEE5352430F98781D0D0D083C1
:09047800D082D0F0D0E0D2AF2216
:00000001FF
